{
  "_format": "hh-sol-artifact-1",
  "contractName": "RealEstateMarketplace",
  "sourceName": "contracts/RealEstateMarketplace.sol",
  "abi": [
    {
      "inputs": [],
      "stateMutability": "nonpayable",
      "type": "constructor"
    },
    {
      "anonymous": false,
      "inputs": [
        {
          "indexed": true,
          "internalType": "address",
          "name": "owner",
          "type": "address"
        },
        {
          "indexed": true,
          "internalType": "address",
          "name": "approved",
          "type": "address"
        },
        {
          "indexed": true,
          "internalType": "uint256",
          "name": "tokenId",
          "type": "uint256"
        }
      ],
      "name": "Approval",
      "type": "event"
    },
    {
      "anonymous": false,
      "inputs": [
        {
          "indexed": true,
          "internalType": "address",
          "name": "owner",
          "type": "address"
        },
        {
          "indexed": true,
          "internalType": "address",
          "name": "operator",
          "type": "address"
        },
        {
          "indexed": false,
          "internalType": "bool",
          "name": "approved",
          "type": "bool"
        }
      ],
      "name": "ApprovalForAll",
      "type": "event"
    },
    {
      "anonymous": false,
      "inputs": [
        {
          "indexed": true,
          "internalType": "address",
          "name": "previousOwner",
          "type": "address"
        },
        {
          "indexed": true,
          "internalType": "address",
          "name": "newOwner",
          "type": "address"
        }
      ],
      "name": "OwnershipTransferred",
      "type": "event"
    },
    {
      "anonymous": false,
      "inputs": [
        {
          "indexed": false,
          "internalType": "uint256",
          "name": "propertyId",
          "type": "uint256"
        },
        {
          "indexed": false,
          "internalType": "string",
          "name": "title",
          "type": "string"
        },
        {
          "indexed": false,
          "internalType": "string",
          "name": "location",
          "type": "string"
        },
        {
          "indexed": false,
          "internalType": "uint256",
          "name": "price",
          "type": "uint256"
        }
      ],
      "name": "PropertyListed",
      "type": "event"
    },
    {
      "anonymous": false,
      "inputs": [
        {
          "indexed": false,
          "internalType": "uint256",
          "name": "propertyId",
          "type": "uint256"
        },
        {
          "indexed": false,
          "internalType": "address",
          "name": "buyer",
          "type": "address"
        },
        {
          "indexed": false,
          "internalType": "uint256",
          "name": "price",
          "type": "uint256"
        }
      ],
      "name": "PropertySold",
      "type": "event"
    },
    {
      "anonymous": false,
      "inputs": [
        {
          "indexed": false,
          "internalType": "uint256",
          "name": "propertyId",
          "type": "uint256"
        },
        {
          "indexed": false,
          "internalType": "address",
          "name": "from",
          "type": "address"
        },
        {
          "indexed": false,
          "internalType": "address",
          "name": "to",
          "type": "address"
        }
      ],
      "name": "PropertyTransferred",
      "type": "event"
    },
    {
      "anonymous": false,
      "inputs": [
        {
          "indexed": true,
          "internalType": "address",
          "name": "from",
          "type": "address"
        },
        {
          "indexed": true,
          "internalType": "address",
          "name": "to",
          "type": "address"
        },
        {
          "indexed": true,
          "internalType": "uint256",
          "name": "tokenId",
          "type": "uint256"
        }
      ],
      "name": "Transfer",
      "type": "event"
    },
    {
      "inputs": [
        {
          "internalType": "address",
          "name": "to",
          "type": "address"
        },
        {
          "internalType": "uint256",
          "name": "tokenId",
          "type": "uint256"
        }
      ],
      "name": "approve",
      "outputs": [],
      "stateMutability": "nonpayable",
      "type": "function"
    },
    {
      "inputs": [
        {
          "internalType": "address",
          "name": "owner",
          "type": "address"
        }
      ],
      "name": "balanceOf",
      "outputs": [
        {
          "internalType": "uint256",
          "name": "",
          "type": "uint256"
        }
      ],
      "stateMutability": "view",
      "type": "function"
    },
    {
      "inputs": [
        {
          "internalType": "uint256",
          "name": "_propertyId",
          "type": "uint256"
        }
      ],
      "name": "buyProperty",
      "outputs": [],
      "stateMutability": "payable",
      "type": "function"
    },
    {
      "inputs": [
        {
          "internalType": "uint256",
          "name": "tokenId",
          "type": "uint256"
        }
      ],
      "name": "getApproved",
      "outputs": [
        {
          "internalType": "address",
          "name": "",
          "type": "address"
        }
      ],
      "stateMutability": "view",
      "type": "function"
    },
    {
      "inputs": [
        {
          "internalType": "uint256",
          "name": "_propertyId",
          "type": "uint256"
        }
      ],
      "name": "getPropertyDetails",
      "outputs": [
        {
          "components": [
            {
              "internalType": "uint256",
              "name": "id",
              "type": "uint256"
            },
            {
              "internalType": "string",
              "name": "title",
              "type": "string"
            },
            {
              "internalType": "string",
              "name": "location",
              "type": "string"
            },
            {
              "internalType": "uint256",
              "name": "price",
              "type": "uint256"
            },
            {
              "internalType": "address payable",
              "name": "owner",
              "type": "address"
            },
            {
              "internalType": "bool",
              "name": "forSale",
              "type": "bool"
            }
          ],
          "internalType": "struct RealEstateMarketplace.Property",
          "name": "",
          "type": "tuple"
        }
      ],
      "stateMutability": "view",
      "type": "function"
    },
    {
      "inputs": [],
      "name": "getTotalProperties",
      "outputs": [
        {
          "internalType": "uint256",
          "name": "",
          "type": "uint256"
        }
      ],
      "stateMutability": "view",
      "type": "function"
    },
    {
      "inputs": [
        {
          "internalType": "address",
          "name": "owner",
          "type": "address"
        },
        {
          "internalType": "address",
          "name": "operator",
          "type": "address"
        }
      ],
      "name": "isApprovedForAll",
      "outputs": [
        {
          "internalType": "bool",
          "name": "",
          "type": "bool"
        }
      ],
      "stateMutability": "view",
      "type": "function"
    },
    {
      "inputs": [
        {
          "internalType": "uint256",
          "name": "_propertyId",
          "type": "uint256"
        },
        {
          "internalType": "uint256",
          "name": "_price",
          "type": "uint256"
        }
      ],
      "name": "listPropertyForSale",
      "outputs": [],
      "stateMutability": "nonpayable",
      "type": "function"
    },
    {
      "inputs": [
        {
          "internalType": "string",
          "name": "_title",
          "type": "string"
        },
        {
          "internalType": "string",
          "name": "_location",
          "type": "string"
        },
        {
          "internalType": "uint256",
          "name": "_price",
          "type": "uint256"
        }
      ],
      "name": "mintProperty",
      "outputs": [],
      "stateMutability": "nonpayable",
      "type": "function"
    },
    {
      "inputs": [],
      "name": "name",
      "outputs": [
        {
          "internalType": "string",
          "name": "",
          "type": "string"
        }
      ],
      "stateMutability": "view",
      "type": "function"
    },
    {
      "inputs": [],
      "name": "owner",
      "outputs": [
        {
          "internalType": "address",
          "name": "",
          "type": "address"
        }
      ],
      "stateMutability": "view",
      "type": "function"
    },
    {
      "inputs": [
        {
          "internalType": "uint256",
          "name": "tokenId",
          "type": "uint256"
        }
      ],
      "name": "ownerOf",
      "outputs": [
        {
          "internalType": "address",
          "name": "",
          "type": "address"
        }
      ],
      "stateMutability": "view",
      "type": "function"
    },
    {
      "inputs": [
        {
          "internalType": "uint256",
          "name": "",
          "type": "uint256"
        }
      ],
      "name": "properties",
      "outputs": [
        {
          "internalType": "uint256",
          "name": "id",
          "type": "uint256"
        },
        {
          "internalType": "string",
          "name": "title",
          "type": "string"
        },
        {
          "internalType": "string",
          "name": "location",
          "type": "string"
        },
        {
          "internalType": "uint256",
          "name": "price",
          "type": "uint256"
        },
        {
          "internalType": "address payable",
          "name": "owner",
          "type": "address"
        },
        {
          "internalType": "bool",
          "name": "forSale",
          "type": "bool"
        }
      ],
      "stateMutability": "view",
      "type": "function"
    },
    {
      "inputs": [],
      "name": "renounceOwnership",
      "outputs": [],
      "stateMutability": "nonpayable",
      "type": "function"
    },
    {
      "inputs": [
        {
          "internalType": "address",
          "name": "from",
          "type": "address"
        },
        {
          "internalType": "address",
          "name": "to",
          "type": "address"
        },
        {
          "internalType": "uint256",
          "name": "tokenId",
          "type": "uint256"
        }
      ],
      "name": "safeTransferFrom",
      "outputs": [],
      "stateMutability": "nonpayable",
      "type": "function"
    },
    {
      "inputs": [
        {
          "internalType": "address",
          "name": "from",
          "type": "address"
        },
        {
          "internalType": "address",
          "name": "to",
          "type": "address"
        },
        {
          "internalType": "uint256",
          "name": "tokenId",
          "type": "uint256"
        },
        {
          "internalType": "bytes",
          "name": "data",
          "type": "bytes"
        }
      ],
      "name": "safeTransferFrom",
      "outputs": [],
      "stateMutability": "nonpayable",
      "type": "function"
    },
    {
      "inputs": [
        {
          "internalType": "address",
          "name": "operator",
          "type": "address"
        },
        {
          "internalType": "bool",
          "name": "approved",
          "type": "bool"
        }
      ],
      "name": "setApprovalForAll",
      "outputs": [],
      "stateMutability": "nonpayable",
      "type": "function"
    },
    {
      "inputs": [
        {
          "internalType": "bytes4",
          "name": "interfaceId",
          "type": "bytes4"
        }
      ],
      "name": "supportsInterface",
      "outputs": [
        {
          "internalType": "bool",
          "name": "",
          "type": "bool"
        }
      ],
      "stateMutability": "view",
      "type": "function"
    },
    {
      "inputs": [],
      "name": "symbol",
      "outputs": [
        {
          "internalType": "string",
          "name": "",
          "type": "string"
        }
      ],
      "stateMutability": "view",
      "type": "function"
    },
    {
      "inputs": [
        {
          "internalType": "uint256",
          "name": "tokenId",
          "type": "uint256"
        }
      ],
      "name": "tokenURI",
      "outputs": [
        {
          "internalType": "string",
          "name": "",
          "type": "string"
        }
      ],
      "stateMutability": "view",
      "type": "function"
    },
    {
      "inputs": [
        {
          "internalType": "address",
          "name": "from",
          "type": "address"
        },
        {
          "internalType": "address",
          "name": "to",
          "type": "address"
        },
        {
          "internalType": "uint256",
          "name": "tokenId",
          "type": "uint256"
        }
      ],
      "name": "transferFrom",
      "outputs": [],
      "stateMutability": "nonpayable",
      "type": "function"
    },
    {
      "inputs": [
        {
          "internalType": "address",
          "name": "newOwner",
          "type": "address"
        }
      ],
      "name": "transferOwnership",
      "outputs": [],
      "stateMutability": "nonpayable",
      "type": "function"
    }
  ],
  "bytecode": "0x60806040523480156200001157600080fd5b50604080518082018252600f81526e2932b0b622b9ba30ba32aa37b5b2b760891b60208083019182528351808501909452600384526214915560ea1b9084015281519192916200006491600091620000f3565b5080516200007a906001906020840190620000f3565b50505062000097620000916200009d60201b60201c565b620000a1565b620001d6565b3390565b600680546001600160a01b038381166001600160a01b0319831681179093556040519116919082907f8be0079c531659141344cd1fd0a4f28419497f9722a3daafe3b4186f6b6457e090600090a35050565b828054620001019062000199565b90600052602060002090601f01602090048101928262000125576000855562000170565b82601f106200014057805160ff191683800117855562000170565b8280016001018555821562000170579182015b828111156200017057825182559160200191906001019062000153565b506200017e92915062000182565b5090565b5b808211156200017e576000815560010162000183565b600281046001821680620001ae57607f821691505b60208210811415620001d057634e487b7160e01b600052602260045260246000fd5b50919050565b6120b380620001e66000396000f3fe6080604052600436106101355760003560e01c806370a08231116100ab578063a22cb4651161006f578063a22cb46514610342578063b88d4fde14610362578063c87b56dd14610382578063e985e9c5146103a2578063f2fde38b146103c2578063f7b10808146103e257610135565b806370a08231146102c3578063715018a6146102e35780638da5cb5b146102f8578063918b00341461030d57806395d89b411461032d57610135565b8063126dbe43116100fd578063126dbe431461020157806317aaf5ed1461022e57806323b872dd1461025057806342842e0e146102705780636352211e146102905780636fa830a6146102b057610135565b806301ffc9a71461013a57806306fdde0314610170578063081812fc14610192578063095ea7b3146101bf5780630f55415b146101e1575b600080fd5b34801561014657600080fd5b5061015a6101553660046118b9565b610414565b6040516101679190611a40565b60405180910390f35b34801561017c57600080fd5b5061018561045c565b6040516101679190611a4b565b34801561019e57600080fd5b506101b26101ad36600461195b565b6104ee565b60405161016791906119ef565b3480156101cb57600080fd5b506101df6101da366004611890565b610515565b005b3480156101ed57600080fd5b506101df6101fc366004611973565b6105b6565b34801561020d57600080fd5b5061022161021c36600461195b565b610613565b6040516101679190611e54565b34801561023a57600080fd5b5061024361079d565b6040516101679190611ecc565b34801561025c57600080fd5b506101df61026b3660046117a2565b6107ae565b34801561027c57600080fd5b506101df61028b3660046117a2565b6107e6565b34801561029c57600080fd5b506101b26102ab36600461195b565b610801565b6101df6102be36600461195b565b610835565b3480156102cf57600080fd5b506102436102de366004611756565b610980565b3480156102ef57600080fd5b506101df6109c4565b34801561030457600080fd5b506101b26109d8565b34801561031957600080fd5b506101df6103283660046118f1565b6109e7565b34801561033957600080fd5b50610185610b15565b34801561034e57600080fd5b506101df61035d366004611856565b610b24565b34801561036e57600080fd5b506101df61037d3660046117dd565b610b3a565b34801561038e57600080fd5b5061018561039d36600461195b565b610b79565b3480156103ae57600080fd5b5061015a6103bd366004611770565b610be0565b3480156103ce57600080fd5b506101df6103dd366004611756565b610c0e565b3480156103ee57600080fd5b506104026103fd36600461195b565b610c48565b60405161016796959493929190611f50565b60006001600160e01b031982166380ac58cd60e01b148061044557506001600160e01b03198216635b5e139f60e01b145b80610454575061045482610d9c565b90505b919050565b60606000805461046b90612000565b80601f016020809104026020016040519081016040528092919081815260200182805461049790612000565b80156104e45780601f106104b9576101008083540402835291602001916104e4565b820191906000526020600020905b8154815290600101906020018083116104c757829003601f168201915b5050505050905090565b60006104f982610db5565b506000908152600460205260409020546001600160a01b031690565b600061052082610801565b9050806001600160a01b0316836001600160a01b0316141561055d5760405162461bcd60e51b815260040161055490611db6565b60405180910390fd5b806001600160a01b031661056f610dda565b6001600160a01b0316148061058b575061058b816103bd610dda565b6105a75760405162461bcd60e51b815260040161055490611df7565b6105b18383610dde565b505050565b336105c083610801565b6001600160a01b0316146105e65760405162461bcd60e51b815260040161055490611c71565b6000918252600860205260409091206003810191909155600401805460ff60a01b1916600160a01b179055565b61061b6115d0565b600860008381526020019081526020016000206040518060c00160405290816000820154815260200160018201805461065390612000565b80601f016020809104026020016040519081016040528092919081815260200182805461067f90612000565b80156106cc5780601f106106a1576101008083540402835291602001916106cc565b820191906000526020600020905b8154815290600101906020018083116106af57829003601f168201915b505050505081526020016002820180546106e590612000565b80601f016020809104026020016040519081016040528092919081815260200182805461071190612000565b801561075e5780601f106107335761010080835404028352916020019161075e565b820191906000526020600020905b81548152906001019060200180831161074157829003601f168201915b5050509183525050600382015460208201526004909101546001600160a01b0381166040830152600160a01b900460ff16151560609091015292915050565b60006107a96007610e4c565b905090565b6107bf6107b9610dda565b82610e50565b6107db5760405162461bcd60e51b815260040161055490611a95565b6105b1838383610eaf565b6105b183838360405180602001604052806000815250610b3a565b60008061080d83610fec565b90506001600160a01b0381166104545760405162461bcd60e51b815260040161055490611d7f565b60008181526008602052604090206004810154600160a01b900460ff1615156001146108735760405162461bcd60e51b815260040161055490611a5e565b80600301543410156108975760405162461bcd60e51b815260040161055490611ca0565b600481018054336001600160a01b03198216811760ff60a01b19169092556001600160a01b0316906108cb90829085610eaf565b6040516001600160a01b038216903480156108fc02916000818181858888f19350505050158015610900573d6000803e3d6000fd5b507ff17a6666765db393a6218bb324c4de5cc60c9ee3b981bd102ba416effc13b8958333846003015460405161093893929190611ef4565b60405180910390a17f2231fc8bc2c20e26d85d66dc7f13a6b6d535c86d2a4d678bb2de61f5b713608383823360405161097393929190611ed5565b60405180910390a1505050565b60006001600160a01b0382166109a85760405162461bcd60e51b815260040161055490611ccc565b506001600160a01b031660009081526003602052604090205490565b6109cc611007565b6109d66000611046565b565b6006546001600160a01b031690565b6109f16007611098565b60006109fd6007610e4c565b9050610a0933826110a1565b6040805160c081018252828152602080820187815282840187905260608301869052336080840152600160a0840181905260008681526008845294909420835181559051805193949193610a6593928501929190910190611611565b5060408201518051610a81916002840191602090910190611611565b506060820151600382015560808201516004909101805460a0909301511515600160a01b0260ff60a01b196001600160a01b039093166001600160a01b031990941693909317919091169190911790556040517f075729ce63bbb5e8ee82de621bc1a420cf704ca2944f259402915da9ec6a0fca90610b07908390879087908790611f13565b60405180910390a150505050565b60606001805461046b90612000565b610b36610b2f610dda565b8383611196565b5050565b610b4b610b45610dda565b83610e50565b610b675760405162461bcd60e51b815260040161055490611a95565b610b7384848484611239565b50505050565b6060610b8482610db5565b6000610b8e61126c565b90506000815111610bae5760405180602001604052806000815250610bd9565b80610bb88461127e565b604051602001610bc99291906119c0565b6040516020818303038152906040525b9392505050565b6001600160a01b03918216600090815260056020908152604080832093909416825291909152205460ff1690565b610c16611007565b6001600160a01b038116610c3c5760405162461bcd60e51b815260040161055490611b34565b610c4581611046565b50565b60086020526000908152604090208054600182018054919291610c6a90612000565b80601f0160208091040260200160405190810160405280929190818152602001828054610c9690612000565b8015610ce35780601f10610cb857610100808354040283529160200191610ce3565b820191906000526020600020905b815481529060010190602001808311610cc657829003601f168201915b505050505090806002018054610cf890612000565b80601f0160208091040260200160405190810160405280929190818152602001828054610d2490612000565b8015610d715780601f10610d4657610100808354040283529160200191610d71565b820191906000526020600020905b815481529060010190602001808311610d5457829003601f168201915b5050505060038301546004909301549192916001600160a01b0381169150600160a01b900460ff1686565b6001600160e01b031981166301ffc9a760e01b14919050565b610dbe81611329565b610c455760405162461bcd60e51b815260040161055490611d7f565b3390565b600081815260046020526040902080546001600160a01b0319166001600160a01b0384169081179091558190610e1382610801565b6001600160a01b03167f8c5be1e5ebec7d5bd14f71427d1e84f3dd0314c0f7b2291e5b200ac8c7c3b92560405160405180910390a45050565b5490565b600080610e5c83610801565b9050806001600160a01b0316846001600160a01b03161480610e835750610e838185610be0565b80610ea75750836001600160a01b0316610e9c846104ee565b6001600160a01b0316145b949350505050565b826001600160a01b0316610ec282610801565b6001600160a01b031614610ee85760405162461bcd60e51b815260040161055490611b7a565b6001600160a01b038216610f0e5760405162461bcd60e51b815260040161055490611bf6565b610f1b8383836001611346565b826001600160a01b0316610f2e82610801565b6001600160a01b031614610f545760405162461bcd60e51b815260040161055490611b7a565b600081815260046020908152604080832080546001600160a01b03199081169091556001600160a01b0387811680865260038552838620805460001901905590871680865283862080546001019055868652600290945282852080549092168417909155905184937fddf252ad1be2c89b69c2b068fc378daa952ba7f163c4a11628f55a4df523b3ef91a46105b18383836001610b73565b6000908152600260205260409020546001600160a01b031690565b61100f610dda565b6001600160a01b03166110206109d8565b6001600160a01b0316146109d65760405162461bcd60e51b815260040161055490611d4a565b600680546001600160a01b038381166001600160a01b0319831681179093556040519116919082907f8be0079c531659141344cd1fd0a4f28419497f9722a3daafe3b4186f6b6457e090600090a35050565b80546001019055565b6001600160a01b0382166110c75760405162461bcd60e51b815260040161055490611d15565b6110d081611329565b156110ed5760405162461bcd60e51b815260040161055490611bbf565b6110fb600083836001611346565b61110481611329565b156111215760405162461bcd60e51b815260040161055490611bbf565b6001600160a01b038216600081815260036020908152604080832080546001019055848352600290915280822080546001600160a01b0319168417905551839291907fddf252ad1be2c89b69c2b068fc378daa952ba7f163c4a11628f55a4df523b3ef908290a4610b36600083836001610b73565b816001600160a01b0316836001600160a01b031614156111c85760405162461bcd60e51b815260040161055490611c3a565b6001600160a01b0383811660008181526005602090815260408083209487168084529490915290819020805460ff1916851515179055517f17307eab39ab6107e8899845ad3d59bd9653f200f220920489ca2b5937696c319061122c908590611a40565b60405180910390a3505050565b611244848484610eaf565b611250848484846113ce565b610b735760405162461bcd60e51b815260040161055490611ae2565b60408051602081019091526000815290565b6060600061128b836114e9565b600101905060008167ffffffffffffffff8111156112b957634e487b7160e01b600052604160045260246000fd5b6040519080825280601f01601f1916602001820160405280156112e3576020820181803683370190505b5090508181016020015b600019016f181899199a1a9b1b9c1cb0b131b232b360811b600a86061a8153600a850494508461131c57611321565b6112ed565b509392505050565b60008061133583610fec565b6001600160a01b0316141592915050565b6001811115610b73576001600160a01b0384161561138c576001600160a01b03841660009081526003602052604081208054839290611386908490611fbd565b90915550505b6001600160a01b03831615610b73576001600160a01b038316600090815260036020526040812080548392906113c3908490611fa5565b909155505050505050565b60006113e2846001600160a01b03166115c1565b156114de57836001600160a01b031663150b7a026113fe610dda565b8786866040518563ffffffff1660e01b81526004016114209493929190611a03565b602060405180830381600087803b15801561143a57600080fd5b505af192505050801561146a575060408051601f3d908101601f19168201909252611467918101906118d5565b60015b6114c4573d808015611498576040519150601f19603f3d011682016040523d82523d6000602084013e61149d565b606091505b5080516114bc5760405162461bcd60e51b815260040161055490611ae2565b805181602001fd5b6001600160e01b031916630a85bd0160e11b149050610ea7565b506001949350505050565b60008072184f03e93ff9f4daa797ed6e38ed64bf6a1f0160401b83106115285772184f03e93ff9f4daa797ed6e38ed64bf6a1f0160401b830492506040015b6d04ee2d6d415b85acef81000000008310611554576d04ee2d6d415b85acef8100000000830492506020015b662386f26fc10000831061157257662386f26fc10000830492506010015b6305f5e100831061158a576305f5e100830492506008015b612710831061159e57612710830492506004015b606483106115b0576064830492506002015b600a83106104545760010192915050565b6001600160a01b03163b151590565b6040518060c001604052806000815260200160608152602001606081526020016000815260200160006001600160a01b031681526020016000151581525090565b82805461161d90612000565b90600052602060002090601f01602090048101928261163f5760008555611685565b82601f1061165857805160ff1916838001178555611685565b82800160010185558215611685579182015b8281111561168557825182559160200191906001019061166a565b50611691929150611695565b5090565b5b808211156116915760008155600101611696565b600067ffffffffffffffff808411156116c5576116c5612051565b604051601f8501601f19908116603f011681019082821181831017156116ed576116ed612051565b8160405280935085815286868601111561170657600080fd5b858560208301376000602087830101525050509392505050565b80356001600160a01b038116811461045757600080fd5b600082601f830112611747578081fd5b610bd9838335602085016116aa565b600060208284031215611767578081fd5b610bd982611720565b60008060408385031215611782578081fd5b61178b83611720565b915061179960208401611720565b90509250929050565b6000806000606084860312156117b6578081fd5b6117bf84611720565b92506117cd60208501611720565b9150604084013590509250925092565b600080600080608085870312156117f2578081fd5b6117fb85611720565b935061180960208601611720565b925060408501359150606085013567ffffffffffffffff81111561182b578182fd5b8501601f8101871361183b578182fd5b61184a878235602084016116aa565b91505092959194509250565b60008060408385031215611868578182fd5b61187183611720565b915060208301358015158114611885578182fd5b809150509250929050565b600080604083850312156118a2578182fd5b6118ab83611720565b946020939093013593505050565b6000602082840312156118ca578081fd5b8135610bd981612067565b6000602082840312156118e6578081fd5b8151610bd981612067565b600080600060608486031215611905578283fd5b833567ffffffffffffffff8082111561191c578485fd5b61192887838801611737565b9450602086013591508082111561193d578384fd5b5061194a86828701611737565b925050604084013590509250925092565b60006020828403121561196c578081fd5b5035919050565b60008060408385031215611985578182fd5b50508035926020909101359150565b600081518084526119ac816020860160208601611fd4565b601f01601f19169290920160200192915050565b600083516119d2818460208801611fd4565b8351908301906119e6818360208801611fd4565b01949350505050565b6001600160a01b0391909116815260200190565b6001600160a01b0385811682528416602082015260408101839052608060608201819052600090611a3690830184611994565b9695505050505050565b901515815260200190565b600060208252610bd96020830184611994565b60208082526018908201527f50726f7065727479206973206e6f7420666f722073616c650000000000000000604082015260600190565b6020808252602d908201527f4552433732313a2063616c6c6572206973206e6f7420746f6b656e206f776e6560408201526c1c881bdc88185c1c1c9bdd9959609a1b606082015260800190565b60208082526032908201527f4552433732313a207472616e7366657220746f206e6f6e20455243373231526560408201527131b2b4bb32b91034b6b83632b6b2b73a32b960711b606082015260800190565b60208082526026908201527f4f776e61626c653a206e6577206f776e657220697320746865207a65726f206160408201526564647265737360d01b606082015260800190565b60208082526025908201527f4552433732313a207472616e736665722066726f6d20696e636f72726563742060408201526437bbb732b960d91b606082015260800190565b6020808252601c908201527f4552433732313a20746f6b656e20616c7265616479206d696e74656400000000604082015260600190565b60208082526024908201527f4552433732313a207472616e7366657220746f20746865207a65726f206164646040820152637265737360e01b606082015260800190565b60208082526019908201527f4552433732313a20617070726f766520746f2063616c6c657200000000000000604082015260600190565b6020808252601590820152742cb7ba9030b932903737ba103a34329037bbb732b960591b604082015260600190565b602080825260129082015271496e73756666696369656e742066756e647360701b604082015260600190565b60208082526029908201527f4552433732313a2061646472657373207a65726f206973206e6f7420612076616040820152683634b21037bbb732b960b91b606082015260800190565b6020808252818101527f4552433732313a206d696e7420746f20746865207a65726f2061646472657373604082015260600190565b6020808252818101527f4f776e61626c653a2063616c6c6572206973206e6f7420746865206f776e6572604082015260600190565b60208082526018908201527f4552433732313a20696e76616c696420746f6b656e2049440000000000000000604082015260600190565b60208082526021908201527f4552433732313a20617070726f76616c20746f2063757272656e74206f776e656040820152603960f91b606082015260800190565b6020808252603d908201527f4552433732313a20617070726f76652063616c6c6572206973206e6f7420746f60408201527f6b656e206f776e6572206f7220617070726f76656420666f7220616c6c000000606082015260800190565b60006020825282516020830152602083015160c06040840152611e7a60e0840182611994565b90506040840151601f19848303016060850152611e978282611994565b9150506060840151608084015260018060a01b0360808501511660a084015260a0840151151560c08401528091505092915050565b90815260200190565b9283526001600160a01b03918216602084015216604082015260600190565b9283526001600160a01b03919091166020830152604082015260600190565b600085825260806020830152611f2c6080830186611994565b8281036040840152611f3e8186611994565b91505082606083015295945050505050565b600087825260c06020830152611f6960c0830188611994565b8281036040840152611f7b8188611994565b606084019690965250506001600160a01b03929092166080830152151560a0909101529392505050565b60008219821115611fb857611fb861203b565b500190565b600082821015611fcf57611fcf61203b565b500390565b60005b83811015611fef578181015183820152602001611fd7565b83811115610b735750506000910152565b60028104600182168061201457607f821691505b6020821081141561203557634e487b7160e01b600052602260045260246000fd5b50919050565b634e487b7160e01b600052601160045260246000fd5b634e487b7160e01b600052604160045260246000fd5b6001600160e01b031981168114610c4557600080fdfea2646970667358221220e900c9a498a3d2165995bccf3dfc33838e47a866cabbf3622b9f36fdf7c69bfe64736f6c63430008010033",
  "linkReferences": {},
  "deployedLinkReferences": {}
}